{
  "_format": "hh-sol-artifact-1",
  "contractName": "Multicall2",
  "sourceName": "contracts/Multicall.sol",
  "abi": [
    {
      "inputs": [
        {
          "components": [
            {
              "internalType": "address",
              "name": "target",
              "type": "address"
            },
            {
              "internalType": "bytes",
              "name": "callData",
              "type": "bytes"
            }
          ],
          "internalType": "struct Multicall2.Call[]",
          "name": "calls",
          "type": "tuple[]"
        }
      ],
      "name": "aggregate",
      "outputs": [
        {
          "internalType": "uint256",
          "name": "blockNumber",
          "type": "uint256"
        },
        {
          "internalType": "bytes[]",
          "name": "returnData",
          "type": "bytes[]"
        }
      ],
      "stateMutability": "nonpayable",
      "type": "function"
    }
  ],
  "bytecode": "0x6080604052348015600f57600080fd5b506108008061001f6000396000f3fe608060405234801561001057600080fd5b506004361061002b5760003560e01c8063252dba4214610030575b600080fd5b61004a600480360381019061004591906104f8565b610061565b60405161005892919061069b565b60405180910390f35b60006060439150825167ffffffffffffffff8111156100835761008261020e565b5b6040519080825280602002602001820160405280156100b657816020015b60608152602001906001900390816100a15790505b50905060005b83518110156101de576000808583815181106100db576100da6106cb565b5b60200260200101516000015173ffffffffffffffffffffffffffffffffffffffff168684815181106101105761010f6106cb565b5b6020026020010151602001516040516101299190610736565b6000604051808303816000865af19150503d8060008114610166576040519150601f19603f3d011682016040523d82523d6000602084013e61016b565b606091505b5091509150816101b0576040517f08c379a00000000000000000000000000000000000000000000000000000000081526004016101a7906107aa565b60405180910390fd5b808484815181106101c4576101c36106cb565b5b6020026020010181905250505080806001019150506100bc565b50915091565b6000604051905090565b600080fd5b600080fd5b600080fd5b6000601f19601f8301169050919050565b7f4e487b7100000000000000000000000000000000000000000000000000000000600052604160045260246000fd5b610246826101fd565b810181811067ffffffffffffffff821117156102655761026461020e565b5b80604052505050565b60006102786101e4565b9050610284828261023d565b919050565b600067ffffffffffffffff8211156102a4576102a361020e565b5b602082029050602081019050919050565b600080fd5b600080fd5b600080fd5b600073ffffffffffffffffffffffffffffffffffffffff82169050919050565b60006102ef826102c4565b9050919050565b6102ff816102e4565b811461030a57600080fd5b50565b60008135905061031c816102f6565b92915050565b600080fd5b600067ffffffffffffffff8211156103425761034161020e565b5b61034b826101fd565b9050602081019050919050565b82818337600083830152505050565b600061037a61037584610327565b61026e565b90508281526020810184848401111561039657610395610322565b5b6103a1848285610358565b509392505050565b600082601f8301126103be576103bd6101f8565b5b81356103ce848260208601610367565b91505092915050565b6000604082840312156103ed576103ec6102ba565b5b6103f7604061026e565b905060006104078482850161030d565b600083015250602082013567ffffffffffffffff81111561042b5761042a6102bf565b5b610437848285016103a9565b60208301525092915050565b600061045661045184610289565b61026e565b90508083825260208201905060208402830185811115610479576104786102b5565b5b835b818110156104c057803567ffffffffffffffff81111561049e5761049d6101f8565b5b8086016104ab89826103d7565b8552602085019450505060208101905061047b565b5050509392505050565b600082601f8301126104df576104de6101f8565b5b81356104ef848260208601610443565b91505092915050565b60006020828403121561050e5761050d6101ee565b5b600082013567ffffffffffffffff81111561052c5761052b6101f3565b5b610538848285016104ca565b91505092915050565b6000819050919050565b61055481610541565b82525050565b600081519050919050565b600082825260208201905092915050565b6000819050602082019050919050565b600081519050919050565b600082825260208201905092915050565b60005b838110156105c05780820151818401526020810190506105a5565b60008484015250505050565b60006105d782610586565b6105e18185610591565b93506105f18185602086016105a2565b6105fa816101fd565b840191505092915050565b600061061183836105cc565b905092915050565b6000602082019050919050565b60006106318261055a565b61063b8185610565565b93508360208202850161064d85610576565b8060005b85811015610689578484038952815161066a8582610605565b945061067583610619565b925060208a01995050600181019050610651565b50829750879550505050505092915050565b60006040820190506106b0600083018561054b565b81810360208301526106c28184610626565b90509392505050565b7f4e487b7100000000000000000000000000000000000000000000000000000000600052603260045260246000fd5b600081905092915050565b600061071082610586565b61071a81856106fa565b935061072a8185602086016105a2565b80840191505092915050565b60006107428284610705565b915081905092915050565b600082825260208201905092915050565b7f4d756c746963616c6c323a2063616c6c206661696c6564000000000000000000600082015250565b600061079460178361074d565b915061079f8261075e565b602082019050919050565b600060208201905081810360008301526107c381610787565b905091905056fea26469706673582212208a2e8e59f351effa4d1b4b150338dab34936a52654f3140c15647ef70a6ac75064736f6c634300081a0033",
  "linkReferences": {},
  "deployedLinkReferences": {}
}